{
  "contractName": "GBTokenAndCrowdsale",
  "abi": [
    {
      "inputs": [
        {
          "name": "initialSupply",
          "type": "uint256"
        }
      ],
      "payable": false,
      "stateMutability": "nonpayable",
      "type": "constructor"
    },
    {
      "anonymous": false,
      "inputs": [
        {
          "indexed": true,
          "name": "from",
          "type": "address"
        },
        {
          "indexed": true,
          "name": "to",
          "type": "address"
        },
        {
          "indexed": false,
          "name": "value",
          "type": "uint256"
        }
      ],
      "name": "TransferGB",
      "type": "event"
    },
    {
      "anonymous": false,
      "inputs": [
        {
          "indexed": true,
          "name": "from",
          "type": "address"
        },
        {
          "indexed": false,
          "name": "fundsReceivedInWei",
          "type": "uint256"
        },
        {
          "indexed": false,
          "name": "tokensIssued",
          "type": "uint256"
        }
      ],
      "name": "FundsRaised",
      "type": "event"
    },
    {
      "anonymous": false,
      "inputs": [
        {
          "indexed": true,
          "name": "recipient",
          "type": "address"
        },
        {
          "indexed": false,
          "name": "fundsWithdrawnInWei",
          "type": "uint256"
        }
      ],
      "name": "ETHFundsWithdrawn",
      "type": "event"
    },
    {
      "constant": false,
      "inputs": [
        {
          "name": "receiver",
          "type": "address"
        },
        {
          "name": "amount",
          "type": "uint256"
        }
      ],
      "name": "sendTokens",
      "outputs": [],
      "payable": false,
      "stateMutability": "nonpayable",
      "type": "function"
    },
    {
      "constant": true,
      "inputs": [
        {
          "name": "addr",
          "type": "address"
        }
      ],
      "name": "getBalance",
      "outputs": [
        {
          "name": "",
          "type": "uint256"
        }
      ],
      "payable": false,
      "stateMutability": "view",
      "type": "function"
    },
    {
      "constant": false,
      "inputs": [],
      "name": "buyTokensWithEther",
      "outputs": [],
      "payable": true,
      "stateMutability": "payable",
      "type": "function"
    },
    {
      "constant": false,
      "inputs": [],
      "name": "withdrawRaisedFunds",
      "outputs": [],
      "payable": false,
      "stateMutability": "nonpayable",
      "type": "function"
    }
  ],
  "bytecode": "0x60806040526000600460006101000a81548160ff02191690831515021790555034801561002b57600080fd5b5060405160208061072783398101806040528101908080519060200190929190505050806000803373ffffffffffffffffffffffffffffffffffffffff1673ffffffffffffffffffffffffffffffffffffffff1681526020019081526020016000208190555033600160006101000a81548173ffffffffffffffffffffffffffffffffffffffff021916908373ffffffffffffffffffffffffffffffffffffffff160217905550600160009054906101000a900473ffffffffffffffffffffffffffffffffffffffff16600260006101000a81548173ffffffffffffffffffffffffffffffffffffffff021916908373ffffffffffffffffffffffffffffffffffffffff160217905550506105e2806101456000396000f300608060405260043610610062576000357c0100000000000000000000000000000000000000000000000000000000900463ffffffff16806305ab421d146100675780635413713a146100b4578063cd38ba95146100cb578063f8b2cb4f146100d5575b600080fd5b34801561007357600080fd5b506100b2600480360381019080803573ffffffffffffffffffffffffffffffffffffffff1690602001909291908035906020019092919050505061012c565b005b3480156100c057600080fd5b506100c96102bd565b005b6100d3610433565b005b3480156100e157600080fd5b50610116600480360381019080803573ffffffffffffffffffffffffffffffffffffffff16906020019092919050505061056e565b6040518082815260200191505060405180910390f35b80600080600160009054906101000a900473ffffffffffffffffffffffffffffffffffffffff1673ffffffffffffffffffffffffffffffffffffffff1673ffffffffffffffffffffffffffffffffffffffff168152602001908152602001600020541015610199576102b9565b80600080600160009054906101000a900473ffffffffffffffffffffffffffffffffffffffff1673ffffffffffffffffffffffffffffffffffffffff1673ffffffffffffffffffffffffffffffffffffffff16815260200190815260200160002060008282540392505081905550806000808473ffffffffffffffffffffffffffffffffffffffff1673ffffffffffffffffffffffffffffffffffffffff168152602001908152602001600020600082825401925050819055508173ffffffffffffffffffffffffffffffffffffffff163373ffffffffffffffffffffffffffffffffffffffff167fdcc0790ea4d5ede28043b8cace5a24a55841fcad2864794570c855cb877d6675836040518082815260200191505060405180910390a35b5050565b600260009054906101000a900473ffffffffffffffffffffffffffffffffffffffff1673ffffffffffffffffffffffffffffffffffffffff163373ffffffffffffffffffffffffffffffffffffffff161415801561032e575060011515600460009054906101000a900460ff161515145b1561033857610431565b600260009054906101000a900473ffffffffffffffffffffffffffffffffffffffff1673ffffffffffffffffffffffffffffffffffffffff166108fc6003549081150290604051600060405180830381858888f193505050501580156103a2573d6000803e3d6000fd5b506001600460006101000a81548160ff021916908315150217905550600260009054906101000a900473ffffffffffffffffffffffffffffffffffffffff1673ffffffffffffffffffffffffffffffffffffffff167fd276aa389286096a83782f228be263ca61d0276e677ddf59fa0005896d2a50586003546040518082815260200191505060405180910390a25b565b6000670de0b6b3a76400003481151561044857fe5b04905080600080600160009054906101000a900473ffffffffffffffffffffffffffffffffffffffff1673ffffffffffffffffffffffffffffffffffffffff1673ffffffffffffffffffffffffffffffffffffffff16815260200190815260200160002060008282540392505081905550806000803373ffffffffffffffffffffffffffffffffffffffff1673ffffffffffffffffffffffffffffffffffffffff16815260200190815260200160002060008282540192505081905550346003600082825401925050819055503373ffffffffffffffffffffffffffffffffffffffff167f28c8db2c4624ddb3f3acc2bc3fe769f01cf8d45e3e7a6819c4f91a9aa2340df53483604051808381526020018281526020019250505060405180910390a250565b60008060008373ffffffffffffffffffffffffffffffffffffffff1673ffffffffffffffffffffffffffffffffffffffff1681526020019081526020016000205490509190505600a165627a7a723058203192a5c025f12921507454cbe161d02dd8f0f1ed794fd03765187858ca01a3400029",
  "source": "pragma solidity ^0.4.20;\n\n/* \n* Simple implementation of a crowd sale. You send Ether, this contract sends you tokens.\n* Token price is fixed to be 1 GBT = 1 ETH.\n* \n* This contract is for educational purposes ONLY. For security audited / more functional \n* crowdsale contracts, check out OpenZepplin's github repository:\n*\n* https://github.com/OpenZeppelin/openzeppelin-solidity/tree/master/contracts/crowdsale\n* \n*/\ncontract GBTokenAndCrowdsale {\n\n    /* This creates an array with all balances */\n    mapping (address => uint) balances;\n    \n    /* Address of the wallet holding the token funds when they are first created */\n    address tokenFundsAddress; // Calling of contract and its address\n    \n    /* Approved address of the account that will receive the raised Ether funds */\n    address beneficiary;  // The person who created the contract \n    \n    /* Keep track of ETH funds raised */\n    uint amountRaised;\n\n    bool saleIsFinished = false;\n\n    /* Price of a GBT token, in 'wei' denomination */\n    uint constant private TOKEN_PRICE_IN_WEI = 1 * 1 ether;\n\n    /* This generates a public event on the blockchain that will notify listening clients */\n    event TransferGB(address indexed from, address indexed to, uint value);\n    event FundsRaised(address indexed from, uint fundsReceivedInWei, uint tokensIssued);\n    event ETHFundsWithdrawn(address indexed recipient, uint fundsWithdrawnInWei);\n\n    /*\n        EVENT:-\n    1.\n    2.    \n    ..\n    \n    */\n\n    \n    /* Initialize the contract, this is the \"constructor\" */\n    constructor(uint initialSupply) public {\n        // give all tokens to the creator of the contract\n        balances[msg.sender] = initialSupply;\n        \n        // store a reference to this contract creator's address, \n        // so we can debit tokens from this address each time we distribute tokens to\n        // a crowdsale participant\n        tokenFundsAddress = msg.sender;\n        \n        // the beneficiary for the crowd sale (the one who will receive the raised ETH)\n        // should be the same as the account holding the tokens to be given away\n        beneficiary = tokenFundsAddress;\n    }\n    \n    /* Send tokens from the message sender's account to the specified account */\n    function sendTokens(address receiver, uint amount) public {\n        // if sender does not have enough money\n        if (balances[tokenFundsAddress] < amount) return;\n        \n        // take funds out of sender's account\n        balances[tokenFundsAddress] -= amount;\n        \n        // add those funds to receipient's account\n        balances[receiver] += amount;\n\n        emit TransferGB(msg.sender, receiver, amount);\n    }\n    \n    function getBalance(address addr) public view returns (uint) {\n        return balances[addr];\n    }\n\n    function buyTokensWithEther() public payable {\n        // calculate # of tokens to give based on \n        // amount of Ether received and the token's fixed price\n        uint numTokens = msg.value / TOKEN_PRICE_IN_WEI;\n        \n        // take funds out of our token holdings\n        balances[tokenFundsAddress] -= numTokens;\n        \n        // deposit those tokens into the buyer's account\n        balances[msg.sender] += numTokens;\n        \n        // update our tracker of total ETH raised\n        // during this crowdsale\n        amountRaised += msg.value;\n\n        emit FundsRaised(msg.sender, msg.value, numTokens);\n    }\n    \n    function withdrawRaisedFunds() public {\n        \n        // verify that the account requesting the funds\n        // is the approved beneficiary\n        if (msg.sender != beneficiary && saleIsFinished==true)\n            return;\n        \n        // transfer ETH from this contract's balance\n        // to the rightful recipient\n        beneficiary.transfer(amountRaised);\n        \n        saleIsFinished = true;\n\n        emit ETHFundsWithdrawn(beneficiary, amountRaised);\n\n        \n    }\n}",
  "sourcePath": "/Users/shreyashshrivastava/Desktop/TRUFFLE/Truffle_GBT_CROWDSALE/contracts/GBTokenAndCrowdsale.sol",
  "compiler": {
    "name": "solc",
    "version": "0.4.24+commit.e67f0147.Emscripten.clang"
  },
  "schemaVersion": "2.0.1",
  "updatedAt": "2018-06-30T19:51:18.229Z"
}